{
  "_format": "hh-sol-artifact-1",
  "contractName": "fakeProduct",
  "sourceName": "contracts/Xproduct.sol",
  "abi": [
    {
      "inputs": [],
      "stateMutability": "nonpayable",
      "type": "constructor"
    },
    {
      "anonymous": false,
      "inputs": [
        {
          "indexed": false,
          "internalType": "uint256",
          "name": "_sno",
          "type": "uint256"
        },
        {
          "indexed": false,
          "internalType": "string",
          "name": "_pname",
          "type": "string"
        },
        {
          "indexed": false,
          "internalType": "string",
          "name": "_psource",
          "type": "string"
        },
        {
          "indexed": false,
          "internalType": "string",
          "name": "_pdestination",
          "type": "string"
        }
      ],
      "name": "oldData",
      "type": "event"
    },
    {
      "inputs": [],
      "name": "a",
      "outputs": [
        {
          "internalType": "uint256",
          "name": "",
          "type": "uint256"
        }
      ],
      "stateMutability": "view",
      "type": "function"
    },
    {
      "inputs": [
        {
          "internalType": "address",
          "name": "manufactureAddress",
          "type": "address"
        }
      ],
      "name": "addManufacture",
      "outputs": [],
      "stateMutability": "nonpayable",
      "type": "function"
    },
    {
      "inputs": [
        {
          "internalType": "uint256",
          "name": "_sno",
          "type": "uint256"
        },
        {
          "internalType": "string",
          "name": "_pname",
          "type": "string"
        },
        {
          "internalType": "string",
          "name": "_psource",
          "type": "string"
        },
        {
          "internalType": "string",
          "name": "_pdestination",
          "type": "string"
        }
      ],
      "name": "addProduct",
      "outputs": [],
      "stateMutability": "nonpayable",
      "type": "function"
    },
    {
      "inputs": [
        {
          "internalType": "address",
          "name": "sellerAddress",
          "type": "address"
        }
      ],
      "name": "addSeller",
      "outputs": [],
      "stateMutability": "nonpayable",
      "type": "function"
    },
    {
      "inputs": [
        {
          "internalType": "uint256",
          "name": "__sno",
          "type": "uint256"
        }
      ],
      "name": "getProduct",
      "outputs": [
        {
          "internalType": "bool",
          "name": "found",
          "type": "bool"
        },
        {
          "internalType": "uint256",
          "name": "_sno",
          "type": "uint256"
        },
        {
          "internalType": "string",
          "name": "_pname",
          "type": "string"
        },
        {
          "internalType": "string",
          "name": "_psource",
          "type": "string"
        },
        {
          "internalType": "string",
          "name": "_pdestination",
          "type": "string"
        }
      ],
      "stateMutability": "view",
      "type": "function"
    },
    {
      "inputs": [
        {
          "internalType": "uint256",
          "name": "",
          "type": "uint256"
        },
        {
          "internalType": "uint256",
          "name": "",
          "type": "uint256"
        }
      ],
      "name": "mapAllProduct",
      "outputs": [
        {
          "internalType": "uint256",
          "name": "sno",
          "type": "uint256"
        },
        {
          "internalType": "string",
          "name": "pname",
          "type": "string"
        },
        {
          "internalType": "string",
          "name": "psource",
          "type": "string"
        },
        {
          "internalType": "string",
          "name": "pdestination",
          "type": "string"
        },
        {
          "internalType": "uint256",
          "name": "ptimestamp",
          "type": "uint256"
        }
      ],
      "stateMutability": "view",
      "type": "function"
    },
    {
      "inputs": [
        {
          "internalType": "uint256",
          "name": "",
          "type": "uint256"
        }
      ],
      "name": "mapManufactureProduct",
      "outputs": [
        {
          "internalType": "uint256",
          "name": "sno",
          "type": "uint256"
        },
        {
          "internalType": "string",
          "name": "pname",
          "type": "string"
        },
        {
          "internalType": "string",
          "name": "psource",
          "type": "string"
        },
        {
          "internalType": "string",
          "name": "pdestination",
          "type": "string"
        },
        {
          "internalType": "uint256",
          "name": "ptimestamp",
          "type": "uint256"
        }
      ],
      "stateMutability": "view",
      "type": "function"
    },
    {
      "inputs": [
        {
          "internalType": "uint256",
          "name": "",
          "type": "uint256"
        },
        {
          "internalType": "uint256",
          "name": "",
          "type": "uint256"
        }
      ],
      "name": "mapSellerProduct",
      "outputs": [
        {
          "internalType": "uint256",
          "name": "sno",
          "type": "uint256"
        },
        {
          "internalType": "string",
          "name": "pname",
          "type": "string"
        },
        {
          "internalType": "string",
          "name": "psource",
          "type": "string"
        },
        {
          "internalType": "string",
          "name": "pdestination",
          "type": "string"
        },
        {
          "internalType": "uint256",
          "name": "ptimestamp",
          "type": "uint256"
        }
      ],
      "stateMutability": "view",
      "type": "function"
    },
    {
      "inputs": [
        {
          "internalType": "uint256",
          "name": "_sno",
          "type": "uint256"
        },
        {
          "internalType": "string",
          "name": "_pname",
          "type": "string"
        },
        {
          "internalType": "string",
          "name": "_psource",
          "type": "string"
        },
        {
          "internalType": "string",
          "name": "_pdestination",
          "type": "string"
        }
      ],
      "name": "productSeller",
      "outputs": [],
      "stateMutability": "nonpayable",
      "type": "function"
    },
    {
      "inputs": [
        {
          "internalType": "uint256",
          "name": "_sno",
          "type": "uint256"
        }
      ],
      "name": "viewAllProduct",
      "outputs": [
        {
          "components": [
            {
              "internalType": "uint256",
              "name": "sno",
              "type": "uint256"
            },
            {
              "internalType": "string",
              "name": "pname",
              "type": "string"
            },
            {
              "internalType": "string",
              "name": "psource",
              "type": "string"
            },
            {
              "internalType": "string",
              "name": "pdestination",
              "type": "string"
            },
            {
              "internalType": "uint256",
              "name": "ptimestamp",
              "type": "uint256"
            }
          ],
          "internalType": "struct fakeProduct.product[]",
          "name": "pd",
          "type": "tuple[]"
        }
      ],
      "stateMutability": "view",
      "type": "function"
    },
    {
      "inputs": [
        {
          "internalType": "uint256",
          "name": "_sno",
          "type": "uint256"
        },
        {
          "internalType": "uint256",
          "name": "_index",
          "type": "uint256"
        }
      ],
      "name": "viewSellerProduct",
      "outputs": [
        {
          "components": [
            {
              "internalType": "uint256",
              "name": "sno",
              "type": "uint256"
            },
            {
              "internalType": "string",
              "name": "pname",
              "type": "string"
            },
            {
              "internalType": "string",
              "name": "psource",
              "type": "string"
            },
            {
              "internalType": "string",
              "name": "pdestination",
              "type": "string"
            },
            {
              "internalType": "uint256",
              "name": "ptimestamp",
              "type": "uint256"
            }
          ],
          "internalType": "struct fakeProduct.product",
          "name": "pd",
          "type": "tuple"
        }
      ],
      "stateMutability": "view",
      "type": "function"
    }
  ],
  "bytecode": "0x608060405234801561001057600080fd5b5033600160006101000a81548173ffffffffffffffffffffffffffffffffffffffff021916908373ffffffffffffffffffffffffffffffffffffffff1602179055506123fb806100616000396000f3fe608060405234801561001057600080fd5b50600436106100a95760003560e01c8063b9db15b411610071578063b9db15b414610180578063c1393d27146101b4578063ca180e74146101d0578063d93fabfa146101ec578063dc0e255714610208578063ed16ad1d1461023c576100a9565b80630dbe671f146100ae578063339676d7146100cc5780634caf19841461010057806386c8ffc8146101305780639ac9665114610164575b600080fd5b6100b661026c565b6040516100c3919061166e565b60405180910390f35b6100e660048036038101906100e191906116c9565b610272565b6040516100f7959493929190611786565b60405180910390f35b61011a600480360381019061011591906117ee565b610440565b604051610127919061190b565b60405180910390f35b61014a600480360381019061014591906117ee565b61065e565b60405161015b959493929190611786565b60405180910390f35b61017e60048036038101906101799190611a62565b610849565b005b61019a600480360381019061019591906116c9565b610acb565b6040516101ab959493929190611b38565b60405180910390f35b6101ce60048036038101906101c99190611a62565b610ce9565b005b6101ea60048036038101906101e59190611bfe565b610fdd565b005b61020660048036038101906102019190611bfe565b6110ee565b005b610222600480360381019061021d91906117ee565b6111ff565b604051610233959493929190611786565b60405180910390f35b610256600480360381019061025191906116c9565b6113ea565b6040516102639190611d71565b60405180910390f35b60005481565b600260205280600052604060002060009150905080600001549080600101805461029b90611dc2565b80601f01602080910402602001604051908101604052809291908181526020018280546102c790611dc2565b80156103145780601f106102e957610100808354040283529160200191610314565b820191906000526020600020905b8154815290600101906020018083116102f757829003601f168201915b50505050509080600201805461032990611dc2565b80601f016020809104026020016040519081016040528092919081815260200182805461035590611dc2565b80156103a25780601f10610377576101008083540402835291602001916103a2565b820191906000526020600020905b81548152906001019060200180831161038557829003601f168201915b5050505050908060030180546103b790611dc2565b80601f01602080910402602001604051908101604052809291908181526020018280546103e390611dc2565b80156104305780601f1061040557610100808354040283529160200191610430565b820191906000526020600020905b81548152906001019060200180831161041357829003601f168201915b5050505050908060040154905085565b610448611626565b600060036000858152602001908152602001600020838154811061046f5761046e611df3565b5b90600052602060002090600502019050806040518060a0016040529081600082015481526020016001820180546104a590611dc2565b80601f01602080910402602001604051908101604052809291908181526020018280546104d190611dc2565b801561051e5780601f106104f35761010080835404028352916020019161051e565b820191906000526020600020905b81548152906001019060200180831161050157829003601f168201915b5050505050815260200160028201805461053790611dc2565b80601f016020809104026020016040519081016040528092919081815260200182805461056390611dc2565b80156105b05780601f10610585576101008083540402835291602001916105b0565b820191906000526020600020905b81548152906001019060200180831161059357829003601f168201915b505050505081526020016003820180546105c990611dc2565b80601f01602080910402602001604051908101604052809291908181526020018280546105f590611dc2565b80156106425780601f1061061757610100808354040283529160200191610642565b820191906000526020600020905b81548152906001019060200180831161062557829003601f168201915b5050505050815260200160048201548152505091505092915050565b6003602052816000526040600020818154811061067a57600080fd5b9060005260206000209060050201600091509150508060000154908060010180546106a490611dc2565b80601f01602080910402602001604051908101604052809291908181526020018280546106d090611dc2565b801561071d5780601f106106f25761010080835404028352916020019161071d565b820191906000526020600020905b81548152906001019060200180831161070057829003601f168201915b50505050509080600201805461073290611dc2565b80601f016020809104026020016040519081016040528092919081815260200182805461075e90611dc2565b80156107ab5780601f10610780576101008083540402835291602001916107ab565b820191906000526020600020905b81548152906001019060200180831161078e57829003601f168201915b5050505050908060030180546107c090611dc2565b80601f01602080910402602001604051908101604052809291908181526020018280546107ec90611dc2565b80156108395780601f1061080e57610100808354040283529160200191610839565b820191906000526020600020905b81548152906001019060200180831161081c57829003601f168201915b5050505050908060040154905085565b600660003373ffffffffffffffffffffffffffffffffffffffff1673ffffffffffffffffffffffffffffffffffffffff16815260200190815260200160002060009054906101000a900473ffffffffffffffffffffffffffffffffffffffff1673ffffffffffffffffffffffffffffffffffffffff163373ffffffffffffffffffffffffffffffffffffffff1614610916576040517f08c379a000000000000000000000000000000000000000000000000000000000815260040161090d90611e94565b60405180910390fd5b600060026000868152602001908152602001600020600001540361096f576040517f08c379a000000000000000000000000000000000000000000000000000000000815260040161096690611f00565b60405180910390fd5b60006040518060a00160405280868152602001858152602001848152602001838152602001428152509050600460008681526020019081526020016000208190806001815401808255809150506001900390600052602060002090600502016000909190919091506000820151816000015560208201518160010190816109f691906120cc565b506040820151816002019081610a0c91906120cc565b506060820151816003019081610a2291906120cc565b5060808201518160040155505060036000868152602001908152602001600020819080600181540180825580915050600190039060005260206000209060050201600090919091909150600082015181600001556020820151816001019081610a8b91906120cc565b506040820151816002019081610aa191906120cc565b506060820151816003019081610ab791906120cc565b506080820151816004015550505050505050565b60008060608060606000600260008881526020019081526020016000206040518060a001604052908160008201548152602001600182018054610b0d90611dc2565b80601f0160208091040260200160405190810160405280929190818152602001828054610b3990611dc2565b8015610b865780601f10610b5b57610100808354040283529160200191610b86565b820191906000526020600020905b815481529060010190602001808311610b6957829003601f168201915b50505050508152602001600282018054610b9f90611dc2565b80601f0160208091040260200160405190810160405280929190818152602001828054610bcb90611dc2565b8015610c185780601f10610bed57610100808354040283529160200191610c18565b820191906000526020600020905b815481529060010190602001808311610bfb57829003601f168201915b50505050508152602001600382018054610c3190611dc2565b80601f0160208091040260200160405190810160405280929190818152602001828054610c5d90611dc2565b8015610caa5780601f10610c7f57610100808354040283529160200191610caa565b820191906000526020600020905b815481529060010190602001808311610c8d57829003601f168201915b50505050508152602001600482015481525050905080600001519450806020015193508060400151925080606001519150600195505091939590929450565b600560003373ffffffffffffffffffffffffffffffffffffffff1673ffffffffffffffffffffffffffffffffffffffff16815260200190815260200160002060009054906101000a900473ffffffffffffffffffffffffffffffffffffffff1673ffffffffffffffffffffffffffffffffffffffff163373ffffffffffffffffffffffffffffffffffffffff1614610db6576040517f08c379a0000000000000000000000000000000000000000000000000000000008152600401610dad906121ea565b60405180910390fd5b6000600260008681526020019081526020016000206000015414610e0f576040517f08c379a0000000000000000000000000000000000000000000000000000000008152600401610e069061227c565b60405180910390fd5b60008414610f9c5760006040518060a001604052808681526020018581526020018481526020018381526020014281525090507f6f4f6bb1b7f348d207d9d1e78a5c9f99092d9164db2dbb2cf140a754b23b212485858585604051610e77949392919061229c565b60405180910390a16001600054610e8e9190612325565b6000819055508060026000878152602001908152602001600020600082015181600001556020820151816001019081610ec791906120cc565b506040820151816002019081610edd91906120cc565b506060820151816003019081610ef391906120cc565b506080820151816004015590505060046000868152602001908152602001600020819080600181540180825580915050600190039060005260206000209060050201600090919091909150600082015181600001556020820151816001019081610f5d91906120cc565b506040820151816002019081610f7391906120cc565b506060820151816003019081610f8991906120cc565b5060808201518160040155505050610fd7565b6040517f08c379a0000000000000000000000000000000000000000000000000000000008152600401610fce906123a5565b60405180910390fd5b50505050565b600160009054906101000a900473ffffffffffffffffffffffffffffffffffffffff1673ffffffffffffffffffffffffffffffffffffffff163373ffffffffffffffffffffffffffffffffffffffff161461106d576040517f08c379a0000000000000000000000000000000000000000000000000000000008152600401611064906121ea565b60405180910390fd5b80600560008373ffffffffffffffffffffffffffffffffffffffff1673ffffffffffffffffffffffffffffffffffffffff16815260200190815260200160002060006101000a81548173ffffffffffffffffffffffffffffffffffffffff021916908373ffffffffffffffffffffffffffffffffffffffff16021790555050565b600160009054906101000a900473ffffffffffffffffffffffffffffffffffffffff1673ffffffffffffffffffffffffffffffffffffffff163373ffffffffffffffffffffffffffffffffffffffff161461117e576040517f08c379a0000000000000000000000000000000000000000000000000000000008152600401611175906121ea565b60405180910390fd5b80600660008373ffffffffffffffffffffffffffffffffffffffff1673ffffffffffffffffffffffffffffffffffffffff16815260200190815260200160002060006101000a81548173ffffffffffffffffffffffffffffffffffffffff021916908373ffffffffffffffffffffffffffffffffffffffff16021790555050565b6004602052816000526040600020818154811061121b57600080fd5b90600052602060002090600502016000915091505080600001549080600101805461124590611dc2565b80601f016020809104026020016040519081016040528092919081815260200182805461127190611dc2565b80156112be5780601f10611293576101008083540402835291602001916112be565b820191906000526020600020905b8154815290600101906020018083116112a157829003601f168201915b5050505050908060020180546112d390611dc2565b80601f01602080910402602001604051908101604052809291908181526020018280546112ff90611dc2565b801561134c5780601f106113215761010080835404028352916020019161134c565b820191906000526020600020905b81548152906001019060200180831161132f57829003601f168201915b50505050509080600301805461136190611dc2565b80601f016020809104026020016040519081016040528092919081815260200182805461138d90611dc2565b80156113da5780601f106113af576101008083540402835291602001916113da565b820191906000526020600020905b8154815290600101906020018083116113bd57829003601f168201915b5050505050908060040154905085565b606060046000838152602001908152602001600020805480602002602001604051908101604052809291908181526020016000905b8282101561161b57838290600052602060002090600502016040518060a00160405290816000820154815260200160018201805461145c90611dc2565b80601f016020809104026020016040519081016040528092919081815260200182805461148890611dc2565b80156114d55780601f106114aa576101008083540402835291602001916114d5565b820191906000526020600020905b8154815290600101906020018083116114b857829003601f168201915b505050505081526020016002820180546114ee90611dc2565b80601f016020809104026020016040519081016040528092919081815260200182805461151a90611dc2565b80156115675780601f1061153c57610100808354040283529160200191611567565b820191906000526020600020905b81548152906001019060200180831161154a57829003601f168201915b5050505050815260200160038201805461158090611dc2565b80601f01602080910402602001604051908101604052809291908181526020018280546115ac90611dc2565b80156115f95780601f106115ce576101008083540402835291602001916115f9565b820191906000526020600020905b8154815290600101906020018083116115dc57829003601f168201915b505050505081526020016004820154815250508152602001906001019061141f565b505050509050919050565b6040518060a0016040528060008152602001606081526020016060815260200160608152602001600081525090565b6000819050919050565b61166881611655565b82525050565b6000602082019050611683600083018461165f565b92915050565b6000604051905090565b600080fd5b600080fd5b6116a681611655565b81146116b157600080fd5b50565b6000813590506116c38161169d565b92915050565b6000602082840312156116df576116de611693565b5b60006116ed848285016116b4565b91505092915050565b600081519050919050565b600082825260208201905092915050565b60005b83811015611730578082015181840152602081019050611715565b60008484015250505050565b6000601f19601f8301169050919050565b6000611758826116f6565b6117628185611701565b9350611772818560208601611712565b61177b8161173c565b840191505092915050565b600060a08201905061179b600083018861165f565b81810360208301526117ad818761174d565b905081810360408301526117c1818661174d565b905081810360608301526117d5818561174d565b90506117e4608083018461165f565b9695505050505050565b6000806040838503121561180557611804611693565b5b6000611813858286016116b4565b9250506020611824858286016116b4565b9150509250929050565b61183781611655565b82525050565b600082825260208201905092915050565b6000611859826116f6565b611863818561183d565b9350611873818560208601611712565b61187c8161173c565b840191505092915050565b600060a08301600083015161189f600086018261182e565b50602083015184820360208601526118b7828261184e565b915050604083015184820360408601526118d1828261184e565b915050606083015184820360608601526118eb828261184e565b9150506080830151611900608086018261182e565b508091505092915050565b600060208201905081810360008301526119258184611887565b905092915050565b600080fd5b600080fd5b7f4e487b7100000000000000000000000000000000000000000000000000000000600052604160045260246000fd5b61196f8261173c565b810181811067ffffffffffffffff8211171561198e5761198d611937565b5b80604052505050565b60006119a1611689565b90506119ad8282611966565b919050565b600067ffffffffffffffff8211156119cd576119cc611937565b5b6119d68261173c565b9050602081019050919050565b82818337600083830152505050565b6000611a05611a00846119b2565b611997565b905082815260208101848484011115611a2157611a20611932565b5b611a2c8482856119e3565b509392505050565b600082601f830112611a4957611a4861192d565b5b8135611a598482602086016119f2565b91505092915050565b60008060008060808587031215611a7c57611a7b611693565b5b6000611a8a878288016116b4565b945050602085013567ffffffffffffffff811115611aab57611aaa611698565b5b611ab787828801611a34565b935050604085013567ffffffffffffffff811115611ad857611ad7611698565b5b611ae487828801611a34565b925050606085013567ffffffffffffffff811115611b0557611b04611698565b5b611b1187828801611a34565b91505092959194509250565b60008115159050919050565b611b3281611b1d565b82525050565b600060a082019050611b4d6000830188611b29565b611b5a602083018761165f565b8181036040830152611b6c818661174d565b90508181036060830152611b80818561174d565b90508181036080830152611b94818461174d565b90509695505050505050565b600073ffffffffffffffffffffffffffffffffffffffff82169050919050565b6000611bcb82611ba0565b9050919050565b611bdb81611bc0565b8114611be657600080fd5b50565b600081359050611bf881611bd2565b92915050565b600060208284031215611c1457611c13611693565b5b6000611c2284828501611be9565b91505092915050565b600081519050919050565b600082825260208201905092915050565b6000819050602082019050919050565b600060a083016000830151611c6f600086018261182e565b5060208301518482036020860152611c87828261184e565b91505060408301518482036040860152611ca1828261184e565b91505060608301518482036060860152611cbb828261184e565b9150506080830151611cd0608086018261182e565b508091505092915050565b6000611ce78383611c57565b905092915050565b6000602082019050919050565b6000611d0782611c2b565b611d118185611c36565b935083602082028501611d2385611c47565b8060005b85811015611d5f5784840389528151611d408582611cdb565b9450611d4b83611cef565b925060208a01995050600181019050611d27565b50829750879550505050505092915050565b60006020820190508181036000830152611d8b8184611cfc565b905092915050565b7f4e487b7100000000000000000000000000000000000000000000000000000000600052602260045260246000fd5b60006002820490506001821680611dda57607f821691505b602082108103611ded57611dec611d93565b5b50919050565b7f4e487b7100000000000000000000000000000000000000000000000000000000600052603260045260246000fd5b7f6f6e6c792073656c6c65722063616e20757064617465207468652070726f647560008201527f6374000000000000000000000000000000000000000000000000000000000000602082015250565b6000611e7e602283611701565b9150611e8982611e22565b604082019050919050565b60006020820190508181036000830152611ead81611e71565b9050919050565b7f50726f6475637420646f6573206e6f7420657869737420000000000000000000600082015250565b6000611eea601783611701565b9150611ef582611eb4565b602082019050919050565b60006020820190508181036000830152611f1981611edd565b9050919050565b60008190508160005260206000209050919050565b60006020601f8301049050919050565b600082821b905092915050565b600060088302611f827fffffffffffffffffffffffffffffffffffffffffffffffffffffffffffffffff82611f45565b611f8c8683611f45565b95508019841693508086168417925050509392505050565b6000819050919050565b6000611fc9611fc4611fbf84611655565b611fa4565b611655565b9050919050565b6000819050919050565b611fe383611fae565b611ff7611fef82611fd0565b848454611f52565b825550505050565b600090565b61200c611fff565b612017818484611fda565b505050565b5b8181101561203b57612030600082612004565b60018101905061201d565b5050565b601f8211156120805761205181611f20565b61205a84611f35565b81016020851015612069578190505b61207d61207585611f35565b83018261201c565b50505b505050565b600082821c905092915050565b60006120a360001984600802612085565b1980831691505092915050565b60006120bc8383612092565b9150826002028217905092915050565b6120d5826116f6565b67ffffffffffffffff8111156120ee576120ed611937565b5b6120f88254611dc2565b61210382828561203f565b600060209050601f8311600181146121365760008415612124578287015190505b61212e85826120b0565b865550612196565b601f19841661214486611f20565b60005b8281101561216c57848901518255600182019150602085019450602081019050612147565b868310156121895784890151612185601f891682612092565b8355505b6001600288020188555050505b505050505050565b7f6f6e6c79206d616e756661637475726572206164642070726f64756374000000600082015250565b60006121d4601d83611701565b91506121df8261219e565b602082019050919050565b60006020820190508181036000830152612203816121c7565b9050919050565b7f50726f64756374207769746820746869732073657269616c206e756d6265722060008201527f616c726561647920657869737473000000000000000000000000000000000000602082015250565b6000612266602e83611701565b91506122718261220a565b604082019050919050565b6000602082019050818103600083015261229581612259565b9050919050565b60006080820190506122b1600083018761165f565b81810360208301526122c3818661174d565b905081810360408301526122d7818561174d565b905081810360608301526122eb818461174d565b905095945050505050565b7f4e487b7100000000000000000000000000000000000000000000000000000000600052601160045260246000fd5b600061233082611655565b915061233b83611655565b9250828201905080821115612353576123526122f6565b5b92915050565b7f53657269616c206e756d6265722063616e206e6f74206265207a65726f000000600082015250565b600061238f601d83611701565b915061239a82612359565b602082019050919050565b600060208201905081810360008301526123be81612382565b905091905056fea2646970667358221220f4418da2f322e6b3d56acfe341d4abaed148ee7f662b6401da905ad02622915264736f6c63430008130033",
  "linkReferences": {},
  "deployedLinkReferences": {}
}