{
  "_format": "hh-sol-artifact-1",
  "contractName": "ProductTrackingSystem",
  "sourceName": "contracts/Product.sol",
  "abi": [
    {
      "inputs": [],
      "stateMutability": "nonpayable",
      "type": "constructor"
    },
    {
      "anonymous": false,
      "inputs": [
        {
          "indexed": false,
          "internalType": "uint256",
          "name": "serialNumber",
          "type": "uint256"
        },
        {
          "indexed": false,
          "internalType": "string",
          "name": "name",
          "type": "string"
        },
        {
          "indexed": false,
          "internalType": "string",
          "name": "source",
          "type": "string"
        },
        {
          "indexed": false,
          "internalType": "string",
          "name": "destination",
          "type": "string"
        }
      ],
      "name": "ProductAdded",
      "type": "event"
    },
    {
      "anonymous": false,
      "inputs": [
        {
          "indexed": false,
          "internalType": "uint256",
          "name": "serialNumber",
          "type": "uint256"
        }
      ],
      "name": "ProductDelivered",
      "type": "event"
    },
    {
      "inputs": [
        {
          "internalType": "uint256",
          "name": "_serialNumber",
          "type": "uint256"
        },
        {
          "internalType": "string",
          "name": "_name",
          "type": "string"
        },
        {
          "internalType": "string",
          "name": "_source",
          "type": "string"
        },
        {
          "internalType": "string",
          "name": "_destination",
          "type": "string"
        }
      ],
      "name": "addProduct",
      "outputs": [],
      "stateMutability": "nonpayable",
      "type": "function"
    },
    {
      "inputs": [
        {
          "internalType": "uint256",
          "name": "_serialNumber",
          "type": "uint256"
        }
      ],
      "name": "getProductDetails",
      "outputs": [
        {
          "internalType": "uint256",
          "name": "",
          "type": "uint256"
        },
        {
          "internalType": "string",
          "name": "",
          "type": "string"
        },
        {
          "internalType": "string",
          "name": "",
          "type": "string"
        },
        {
          "internalType": "string",
          "name": "",
          "type": "string"
        },
        {
          "internalType": "bool",
          "name": "",
          "type": "bool"
        }
      ],
      "stateMutability": "view",
      "type": "function"
    },
    {
      "inputs": [],
      "name": "manufacturer",
      "outputs": [
        {
          "internalType": "address",
          "name": "",
          "type": "address"
        }
      ],
      "stateMutability": "view",
      "type": "function"
    },
    {
      "inputs": [
        {
          "internalType": "uint256",
          "name": "_serialNumber",
          "type": "uint256"
        }
      ],
      "name": "markAsDelivered",
      "outputs": [],
      "stateMutability": "nonpayable",
      "type": "function"
    },
    {
      "inputs": [
        {
          "internalType": "uint256",
          "name": "",
          "type": "uint256"
        }
      ],
      "name": "products",
      "outputs": [
        {
          "internalType": "uint256",
          "name": "serialNumber",
          "type": "uint256"
        },
        {
          "internalType": "string",
          "name": "name",
          "type": "string"
        },
        {
          "internalType": "string",
          "name": "source",
          "type": "string"
        },
        {
          "internalType": "string",
          "name": "destination",
          "type": "string"
        },
        {
          "internalType": "bool",
          "name": "delivered",
          "type": "bool"
        }
      ],
      "stateMutability": "view",
      "type": "function"
    }
  ],
  "bytecode": "0x608060405234801561001057600080fd5b50336000806101000a81548173ffffffffffffffffffffffffffffffffffffffff021916908373ffffffffffffffffffffffffffffffffffffffff16021790555061121a806100606000396000f3fe608060405234801561001057600080fd5b50600436106100575760003560e01c80636813b53b1461005c57806374754282146100905780637acc0b20146100ae578063968ee6ed146100e2578063c1393d27146100fe575b600080fd5b610076600480360381019061007191906108ae565b61011a565b604051610087959493929190610995565b60405180910390f35b610098610314565b6040516100a59190610a3e565b60405180910390f35b6100c860048036038101906100c391906108ae565b610338565b6040516100d9959493929190610995565b60405180910390f35b6100fc60048036038101906100f791906108ae565b610513565b005b61011860048036038101906101139190610b8e565b6106c6565b005b6000606080606060008060016000888152602001908152602001600020905080600001548160010182600201836003018460040160009054906101000a900460ff1683805461016890610c78565b80601f016020809104026020016040519081016040528092919081815260200182805461019490610c78565b80156101e15780601f106101b6576101008083540402835291602001916101e1565b820191906000526020600020905b8154815290600101906020018083116101c457829003601f168201915b505050505093508280546101f490610c78565b80601f016020809104026020016040519081016040528092919081815260200182805461022090610c78565b801561026d5780601f106102425761010080835404028352916020019161026d565b820191906000526020600020905b81548152906001019060200180831161025057829003601f168201915b5050505050925081805461028090610c78565b80601f01602080910402602001604051908101604052809291908181526020018280546102ac90610c78565b80156102f95780601f106102ce576101008083540402835291602001916102f9565b820191906000526020600020905b8154815290600101906020018083116102dc57829003601f168201915b50505050509150955095509550955095505091939590929450565b60008054906101000a900473ffffffffffffffffffffffffffffffffffffffff1681565b600160205280600052604060002060009150905080600001549080600101805461036190610c78565b80601f016020809104026020016040519081016040528092919081815260200182805461038d90610c78565b80156103da5780601f106103af576101008083540402835291602001916103da565b820191906000526020600020905b8154815290600101906020018083116103bd57829003601f168201915b5050505050908060020180546103ef90610c78565b80601f016020809104026020016040519081016040528092919081815260200182805461041b90610c78565b80156104685780601f1061043d57610100808354040283529160200191610468565b820191906000526020600020905b81548152906001019060200180831161044b57829003601f168201915b50505050509080600301805461047d90610c78565b80601f01602080910402602001604051908101604052809291908181526020018280546104a990610c78565b80156104f65780601f106104cb576101008083540402835291602001916104f6565b820191906000526020600020905b8154815290600101906020018083116104d957829003601f168201915b5050505050908060040160009054906101000a900460ff16905085565b60008054906101000a900473ffffffffffffffffffffffffffffffffffffffff1673ffffffffffffffffffffffffffffffffffffffff163373ffffffffffffffffffffffffffffffffffffffff16146105a1576040517f08c379a000000000000000000000000000000000000000000000000000000000815260040161059890610d1b565b60405180910390fd5b60006001600083815260200190815260200160002060000154036105fa576040517f08c379a00000000000000000000000000000000000000000000000000000000081526004016105f190610dad565b60405180910390fd5b6001600082815260200190815260200160002060040160009054906101000a900460ff161561065e576040517f08c379a000000000000000000000000000000000000000000000000000000000815260040161065590610e3f565b60405180910390fd5b600180600083815260200190815260200160002060040160006101000a81548160ff0219169083151502179055507f676db0e373ff1071d39d7e4b8f731263eacae499c16b138d9fb88c272d2fd232816040516106bb9190610e5f565b60405180910390a150565b60008054906101000a900473ffffffffffffffffffffffffffffffffffffffff1673ffffffffffffffffffffffffffffffffffffffff163373ffffffffffffffffffffffffffffffffffffffff1614610754576040517f08c379a000000000000000000000000000000000000000000000000000000000815260040161074b90610d1b565b60405180910390fd5b60006001600086815260200190815260200160002060000154146107ad576040517f08c379a00000000000000000000000000000000000000000000000000000000081526004016107a490610eec565b60405180910390fd5b6000600160008681526020019081526020016000209050848160000181905550838160010190816107de91906110b8565b50828160020190816107f091906110b8565b508181600301908161080291906110b8565b5060008160040160006101000a81548160ff0219169083151502179055507f2ad97e35e5231a127d0d7b6cd0aa552ec47d312eff0ef74961fb06c5ae92688485858585604051610855949392919061118a565b60405180910390a15050505050565b6000604051905090565b600080fd5b600080fd5b6000819050919050565b61088b81610878565b811461089657600080fd5b50565b6000813590506108a881610882565b92915050565b6000602082840312156108c4576108c361086e565b5b60006108d284828501610899565b91505092915050565b6108e481610878565b82525050565b600081519050919050565b600082825260208201905092915050565b60005b83811015610924578082015181840152602081019050610909565b60008484015250505050565b6000601f19601f8301169050919050565b600061094c826108ea565b61095681856108f5565b9350610966818560208601610906565b61096f81610930565b840191505092915050565b60008115159050919050565b61098f8161097a565b82525050565b600060a0820190506109aa60008301886108db565b81810360208301526109bc8187610941565b905081810360408301526109d08186610941565b905081810360608301526109e48185610941565b90506109f36080830184610986565b9695505050505050565b600073ffffffffffffffffffffffffffffffffffffffff82169050919050565b6000610a28826109fd565b9050919050565b610a3881610a1d565b82525050565b6000602082019050610a536000830184610a2f565b92915050565b600080fd5b600080fd5b7f4e487b7100000000000000000000000000000000000000000000000000000000600052604160045260246000fd5b610a9b82610930565b810181811067ffffffffffffffff82111715610aba57610ab9610a63565b5b80604052505050565b6000610acd610864565b9050610ad98282610a92565b919050565b600067ffffffffffffffff821115610af957610af8610a63565b5b610b0282610930565b9050602081019050919050565b82818337600083830152505050565b6000610b31610b2c84610ade565b610ac3565b905082815260208101848484011115610b4d57610b4c610a5e565b5b610b58848285610b0f565b509392505050565b600082601f830112610b7557610b74610a59565b5b8135610b85848260208601610b1e565b91505092915050565b60008060008060808587031215610ba857610ba761086e565b5b6000610bb687828801610899565b945050602085013567ffffffffffffffff811115610bd757610bd6610873565b5b610be387828801610b60565b935050604085013567ffffffffffffffff811115610c0457610c03610873565b5b610c1087828801610b60565b925050606085013567ffffffffffffffff811115610c3157610c30610873565b5b610c3d87828801610b60565b91505092959194509250565b7f4e487b7100000000000000000000000000000000000000000000000000000000600052602260045260246000fd5b60006002820490506001821680610c9057607f821691505b602082108103610ca357610ca2610c49565b5b50919050565b7f4f6e6c7920746865206d616e7566616374757265722063616e2063616c6c207460008201527f6869732066756e6374696f6e0000000000000000000000000000000000000000602082015250565b6000610d05602c836108f5565b9150610d1082610ca9565b604082019050919050565b60006020820190508181036000830152610d3481610cf8565b9050919050565b7f50726f64756374207769746820746869732073657269616c206e756d6265722060008201527f646f6573206e6f74206578697374000000000000000000000000000000000000602082015250565b6000610d97602e836108f5565b9150610da282610d3b565b604082019050919050565b60006020820190508181036000830152610dc681610d8a565b9050919050565b7f50726f6475637420697320616c7265616479206d61726b65642061732064656c60008201527f6976657265640000000000000000000000000000000000000000000000000000602082015250565b6000610e296026836108f5565b9150610e3482610dcd565b604082019050919050565b60006020820190508181036000830152610e5881610e1c565b9050919050565b6000602082019050610e7460008301846108db565b92915050565b7f50726f64756374207769746820746869732073657269616c206e756d6265722060008201527f616c726561647920657869737473000000000000000000000000000000000000602082015250565b6000610ed6602e836108f5565b9150610ee182610e7a565b604082019050919050565b60006020820190508181036000830152610f0581610ec9565b9050919050565b60008190508160005260206000209050919050565b60006020601f8301049050919050565b600082821b905092915050565b600060088302610f6e7fffffffffffffffffffffffffffffffffffffffffffffffffffffffffffffffff82610f31565b610f788683610f31565b95508019841693508086168417925050509392505050565b6000819050919050565b6000610fb5610fb0610fab84610878565b610f90565b610878565b9050919050565b6000819050919050565b610fcf83610f9a565b610fe3610fdb82610fbc565b848454610f3e565b825550505050565b600090565b610ff8610feb565b611003818484610fc6565b505050565b5b818110156110275761101c600082610ff0565b600181019050611009565b5050565b601f82111561106c5761103d81610f0c565b61104684610f21565b81016020851015611055578190505b61106961106185610f21565b830182611008565b50505b505050565b600082821c905092915050565b600061108f60001984600802611071565b1980831691505092915050565b60006110a8838361107e565b9150826002028217905092915050565b6110c1826108ea565b67ffffffffffffffff8111156110da576110d9610a63565b5b6110e48254610c78565b6110ef82828561102b565b600060209050601f8311600181146111225760008415611110578287015190505b61111a858261109c565b865550611182565b601f19841661113086610f0c565b60005b8281101561115857848901518255600182019150602085019450602081019050611133565b868310156111755784890151611171601f89168261107e565b8355505b6001600288020188555050505b505050505050565b600060808201905061119f60008301876108db565b81810360208301526111b18186610941565b905081810360408301526111c58185610941565b905081810360608301526111d98184610941565b90509594505050505056fea26469706673582212203a4795ba0d870f08b9199a35d5019038c6c0299a1d7b339a37443f0e5c45b96864736f6c63430008130033",
  "linkReferences": {},
  "deployedLinkReferences": {},
  "abi2": [
    {
      "inputs": [
        {
          "internalType": "address",
          "name": "manufactureAddress",
          "type": "address"
        }
      ],
      "name": "addManufacture",
      "outputs": [],
      "stateMutability": "nonpayable",
      "type": "function"
    },
    {
      "inputs": [
        {
          "internalType": "uint256",
          "name": "_sno",
          "type": "uint256"
        },
        {
          "internalType": "string",
          "name": "_pname",
          "type": "string"
        },
        {
          "internalType": "string",
          "name": "_psource",
          "type": "string"
        },
        {
          "internalType": "string",
          "name": "_pdestination",
          "type": "string"
        }
      ],
      "name": "addProduct",
      "outputs": [],
      "stateMutability": "nonpayable",
      "type": "function"
    },
    {
      "inputs": [
        {
          "internalType": "address",
          "name": "sellerAddress",
          "type": "address"
        }
      ],
      "name": "addSeller",
      "outputs": [],
      "stateMutability": "nonpayable",
      "type": "function"
    },
    {
      "inputs": [],
      "stateMutability": "nonpayable",
      "type": "constructor"
    },
    {
      "anonymous": false,
      "inputs": [
        {
          "indexed": false,
          "internalType": "uint256",
          "name": "_sno",
          "type": "uint256"
        },
        {
          "indexed": false,
          "internalType": "string",
          "name": "_pname",
          "type": "string"
        },
        {
          "indexed": false,
          "internalType": "string",
          "name": "_psource",
          "type": "string"
        },
        {
          "indexed": false,
          "internalType": "string",
          "name": "_pdestination",
          "type": "string"
        }
      ],
      "name": "oldData",
      "type": "event"
    },
    {
      "inputs": [
        {
          "internalType": "uint256",
          "name": "_sno",
          "type": "uint256"
        },
        {
          "internalType": "string",
          "name": "_pname",
          "type": "string"
        },
        {
          "internalType": "string",
          "name": "_psource",
          "type": "string"
        },
        {
          "internalType": "string",
          "name": "_pdestination",
          "type": "string"
        }
      ],
      "name": "productSeller",
      "outputs": [
        {
          "internalType": "string",
          "name": "result",
          "type": "string"
        }
      ],
      "stateMutability": "nonpayable",
      "type": "function"
    },
    {
      "inputs": [],
      "name": "a",
      "outputs": [
        {
          "internalType": "uint256",
          "name": "",
          "type": "uint256"
        }
      ],
      "stateMutability": "view",
      "type": "function"
    },
    {
      "inputs": [
        {
          "internalType": "uint256",
          "name": "__sno",
          "type": "uint256"
        }
      ],
      "name": "getProduct",
      "outputs": [
        {
          "internalType": "bool",
          "name": "found",
          "type": "bool"
        },
        {
          "internalType": "uint256",
          "name": "_sno",
          "type": "uint256"
        },
        {
          "internalType": "string",
          "name": "_pname",
          "type": "string"
        },
        {
          "internalType": "string",
          "name": "_psource",
          "type": "string"
        },
        {
          "internalType": "string",
          "name": "_pdestination",
          "type": "string"
        }
      ],
      "stateMutability": "view",
      "type": "function"
    },
    {
      "inputs": [
        {
          "internalType": "uint256",
          "name": "",
          "type": "uint256"
        }
      ],
      "name": "mapManufactureProduct",
      "outputs": [
        {
          "internalType": "uint256",
          "name": "sno",
          "type": "uint256"
        },
        {
          "internalType": "string",
          "name": "pname",
          "type": "string"
        },
        {
          "internalType": "string",
          "name": "psource",
          "type": "string"
        },
        {
          "internalType": "string",
          "name": "pdestination",
          "type": "string"
        }
      ],
      "stateMutability": "view",
      "type": "function"
    },
    {
      "inputs": [
        {
          "internalType": "uint256",
          "name": "",
          "type": "uint256"
        },
        {
          "internalType": "uint256",
          "name": "",
          "type": "uint256"
        }
      ],
      "name": "mapSellerProduct",
      "outputs": [
        {
          "internalType": "uint256",
          "name": "sno",
          "type": "uint256"
        },
        {
          "internalType": "string",
          "name": "pname",
          "type": "string"
        },
        {
          "internalType": "string",
          "name": "psource",
          "type": "string"
        },
        {
          "internalType": "string",
          "name": "pdestination",
          "type": "string"
        }
      ],
      "stateMutability": "view",
      "type": "function"
    },
    {
      "inputs": [
        {
          "internalType": "uint256",
          "name": "_sno",
          "type": "uint256"
        },
        {
          "internalType": "uint256",
          "name": "_index",
          "type": "uint256"
        }
      ],
      "name": "viewSellerProduct",
      "outputs": [
        {
          "components": [
            {
              "internalType": "uint256",
              "name": "sno",
              "type": "uint256"
            },
            {
              "internalType": "string",
              "name": "pname",
              "type": "string"
            },
            {
              "internalType": "string",
              "name": "psource",
              "type": "string"
            },
            {
              "internalType": "string",
              "name": "pdestination",
              "type": "string"
            }
          ],
          "internalType": "struct fakeProduct.productsSeller",
          "name": "pd",
          "type": "tuple"
        }
      ],
      "stateMutability": "view",
      "type": "function"
    }
  ]
}